:10000000F8C0000027C1000025C1000023C1000086
:1000100021C100001FC100001DC100001BC1000064
:1000200019C1000017C1000015C1000013C1000074
:1000300011C100000FC100000DC100000BC1000084
:1000400009C1000007C1000005C1000003C1000094
:1000500001C10000FFC00000FDC000000C94272873
:10006000F9C000000C941E2C0C94542CF3C000001A
:10007000F1C00000EFC00000EDC00000EBC00000C8
:10008000E9C00000E7C00000E5C00000E3C00000D8
:100090000C94AA2C0C94E02CDDC00000DBC0000006
:1000A000D9C00000D7C00000D5C00000D3C00000F8
:1000B000D1C00000CFC00000CDC00000CBC0000008
:1000C000C9C00000C7C000000C945C250C94362DFC
:1000D0000C946C2DBFC000000C94C22D0C94F82D14
:1000E000B9C0000000000A0B02090C0D0E0807033E
:1000F00004010000000000000000000000000000FB
:1001000000000000000000000000000000000000EF
:1001100012111000000000000000000000000000AC
:100120000000000000000000000001021020200874
:100130000810204010204080020102010804020142
:1001400001020408102040808040201008040201B1
:10015000800402018040201008040201080402010A
:100160000102040810204080010204081020408091
:1001700005050505070508080808020202020A0A23
:100180000808040404040101010101010101030341
:10019000030303030303040707070C0C0C0C0C0CEC
:1001A0000C0C0202020206060606060606060B0BE9
:1001B0000B0B0B0B0B0B00002200250028002B0063
:1001C0002E003100340002010000050108010B017E
:1001D00000002100240027002A002D0030003300F9
:1001E00001010000040107010A017D2C092D952D54
:1001F000212E11241FBECFEFD1E2DEBFCDBF00E024
:100200000CBF12E0A0E0B2E0E2EAFDE500E00BBFC7
:1002100002C007900D92AA3EB107D9F728E0AAEED6
:10022000B2E001C01D92AE3BB207E1F710E0C9EFAA
:10023000D0E000E006C021970109802FFE010E9456
:100240009E2EC53FD10780E00807A9F70E944826E7
:100250000C94CF2ED5CECF93DF93882349F0EB01BA
:1002600081500E942E2999838883DF91CF91089530
:10027000FB0111821082F9CF0F931F938B019C0118
:1002800083E036952795179507958A95D1F70D50F8
:100290001D4F462F477021E030E0F90102C0EE0FFC
:1002A000FF1F4A95E2F7AF01F80120812423CB011B
:1002B0000196211102C090E080E01F910F910895F6
:1002C0000F931F938B019C0183E03695279517951B
:1002D00007958A95D1F7677081E090E001C0880F9B
:1002E0006A95EAF7F801ED50FD4F2081452B31F476
:1002F0008095822380831F910F910895822BFACFDE
:10030000CF92DF92EF92FF92CF93DF936B017C014C
:1003100060E086E3C816D104E104F10490F486E3BA
:100320008C0D0E948B2AE6012196AE01C701B60111
:10033000C7DFCE01DF91CF91FF90EF90DF90CF909C
:1003400008958C2DEECF882341F08150682F70E006
:1003500090E080E050E040E0B3CF0895CF92DF928C
:10036000EF92FF92CF93882351F16A017B01CFEF87
:10037000C80F20E030E0A901CB01B6010E94D926C8
:1003800087FF11C0C701B60190580E94E2269B0169
:10039000AC016C2F70E090E080E0CF91FF90EF9087
:1003A000DF90CF90B2C0C701B6010E94DD268C2F2E
:1003B000CF91FF90EF90DF90CF900C945129CF9187
:1003C000FF90EF90DF90CF9008950F931F938B01D4
:1003D0009C0183E036952795179507958A95D1F767
:1003E00006511D4F462F477021E030E0F90102C051
:1003F000EE0FFF1F4A95E2F7AF01F8012081242399
:10040000CB010196211102C090E080E01F910F9175
:1004100008950F931F938B019C0183E036952795D8
:10042000179507958A95D1F7677081E090E001C034
:10043000880F6A95EAF7F801E651FD4F2081452BB8
:1004400031F48095822380831F910F910895822B30
:10045000FACF2F923F924F925F926F927F928F923C
:100460009F92AF92BF92CF92DF92EF92FF920F9343
:100470001F93CF93DF93D62EC72E782E692E490176
:100480005A01280161E08D2D0E948B2ACD2DDC2D93
:100490008E010F5F1F4FA8016D2D7C2D872D962D8E
:1004A000B8DF20E030E0A901C201B7010E9498271F
:1004B000181664F4C201B7010E94E2262B01C5019F
:1004C000B4010E94E226A201CE0123D0C801DF912F
:1004D000CF911F910F91FF90EF90DF90CF90BF9041
:1004E000AF909F908F907F906F905F904F903F90D4
:1004F0002F900895882341F08150682F70E090E09C
:1005000080E050E040E085CF0895862FB9010C943B
:1005100051299C01FC01EC51FF4FE491E150E23183
:10052000E0F4F0E08827E856FD4F8F4F0C949E2EA4
:10053000AA02B102B402CB02E002AD02F50201034D
:1005400005031C03310346035D037203AD028703F9
:100550009E03B30384B5806884BD60E0822F0C9451
:10056000C72A84B58062F8CF809180008C7F82603A
:100570008093800080918100807E8061682B6093F1
:1005800081005093870040938600809180008068AE
:1005900080938000E2CF809180008C7F8260809386
:1005A000800080918100807E8061682B6093810053
:1005B0005093870040938600809180008062E8CF4E
:1005C000809180008C7F8260809380008091810088
:1005D000807E8061682B60938100509387004093F8
:1005E0008600809180008860D3CF8091B0008068C1
:1005F0008093B0008091B100887F682B6093B10038
:10060000ACCF8091B0008062F3CF809190008C7F5E
:1006100082608093900080919100807E8061682B41
:1006200060939100509397004093960080919000C2
:1006300080688093900091CF809190008C7F826041
:100640008093900080919100807E8061682B609300
:1006500091005093970040939600809190008062A3
:10066000E8CF809190008C7F826080939000809191
:100670009100807E8061682B609391005093970079
:1006800040939600809190008860D3CF8091A00025
:100690008C7F82608093A0008091A100807E806129
:1006A000682B6093A1005093A7004093A60080910F
:1006B000A00080688093A00050CF8091A0008C7F24
:1006C00082608093A0008091A100807E8061682B71
:1006D0006093A1005093A7004093A6008091A000D2
:1006E0008062E8CF8091A0008C7F82608093A00020
:1006F0008091A100807E8061682B6093A10050935F
:10070000A7004093A6008091A0008860D3CF80917D
:1007100020018C7F82608093200180912101807E66
:100720008061682B6093210150932701409326013B
:10073000809120018068809320010FCF809120015B
:100740008C7F82608093200180912101807E806176
:10075000682B6093210150932701409326018091DB
:1007600020018062E8CF809120018C7F826080939D
:10077000200180912101807E8061682B609321019E
:100780005093270140932601809120018860D3CFA8
:1007900090E080E008950F931F93009709F487C0BD
:1007A0006115710509F483C000911B0210911C02B0
:1007B00020911D0230911E020E3F1F4F2F4F3F4FC1
:1007C00009F066C04FEF5FEFBA0140931B025093F0
:1007D0001C0260931D0270931E0240911B025091F7
:1007E0001C0260911D0270911E02DC011296ED91B7
:1007F000FC9180819181A281B3818093F4039093D5
:10080000F503A093F603B093F70384819581A68145
:10081000B7818093F0039093F103A093F203B09318
:10082000F30380859185A285B3858093EC03909333
:10083000ED03A093EE03B093EF0384859585A68521
:10084000B7858093E8039093E903A093EA03B093FC
:10085000EB031092E4031092E5031092E60310926A
:10086000E70376D58DEC99E09093FD028093FC022E
:100870009093FF028093FE025AD4009731F421E056
:1008800030E03093F9032093F8031F910F910895FE
:1008900000911B0210911C0220911D0230911E023A
:1008A000DB010D931D932D933C93139796CF8FEF00
:1008B0009FEFEBCF8F929F92AF92BF92CF92DF923A
:1008C000EF92FF921F93CF93DF934B015C01109146
:1008D000FB0382E090E09093F9038093F803811486
:1008E0009104A104B10441F48091FB03811104C07F
:1008F0008091FA03C1E08111C0E0C12CD12C7601B6
:100900008091FB03811106C08091FA03811102C01E
:10091000CC23D9F083E090E09093F9038093F8031F
:10092000CC2379F1CCE9DFEF111102C00E94320D26
:10093000CE01DF91CF911F91FF90EF90DF90CF908C
:10094000BF90AF909F908F9008956AE070E080E034
:1009500090E00E94962880E1C80E87E2D81EE11C34
:10096000F11C8FEF88169806A806B80631F0C1E092
:100970008C149D04AE04BF0408F0C0E080E00BD4EA
:10098000BFCFD0E0C0E0D0CFCF92DF92EF92FF9206
:100990000F931F93CF93DF938F3F910511F008F0D2
:1009A00050C02091F8033091F9032330310539F01C
:1009B0002091F8033091F9032130310531F424E01E
:1009C00030E03093F9032093F8036A017B01EC01D6
:1009D00082309105A0F011E0AE01C701B601A6D3A7
:1009E000AB01BC01CE011123F9F0DF91CF911F9132
:1009F0000F91FF90EF90DF90CF900C945B0F8C01E4
:100A0000000F111F04501D4FD8018D919C91892B0F
:100A100011F30E94650F0297F1F6D801ED91FC9158
:100A2000CE011995182FD8CF0E947D0F90E080E05D
:100A3000DF91CF911F910F91FF90EF90DF90CF90BA
:100A400008958FEF9FEFF4CF80E0A5C3CF93DF939E
:100A500086E090E09093F9038093F803F5D3EC01DE
:100A6000ECEFF2E084E0DF011D928A95E9F792D77E
:100A70001092F9031092F803CE01DF91CF910895FF
:100A80008091FA0308958091E303089560931B0217
:100A900070931C0280931D0290931E0290E080E0F0
:100AA0000895CF92DF92EF92FF920F931F93CF930F
:100AB000DF931F921F92CDB7DEB7C0900002D09097
:100AC0000102E0900202F0900302A70196016091FA
:100AD000B0087091B1088091B2089091B3080E945B
:100AE000D926882341F0C092B008D092B108E09294
:100AF000B208F092B30866E370E080E090E0BCDBFF
:100B00009093AF088093AE0843E050E0BE016F5F62
:100B10007F4FA1DB2091180230911902A981BA817F
:100B20000E94A62E6093A4087093A5088093A6083F
:100B30009093A70880911A02813009F0C3C0E09118
:100B4000BD03F091BE032091040230910502409153
:100B500006025091070260817181828193810E9417
:100B6000D92687FFA6C08091080290910902A09122
:100B70000A02B0910B028093A0089093A108A09361
:100B8000A208B093A3086BE070E080E090E01DDC69
:100B90008C019093BB088093BA082091A0083091F3
:100BA000A1084091A2085091A3086091140270918D
:100BB000150280911602909117020E949C276B01EA
:100BC0007C0120E030E04FE753E40E94D92618165C
:100BD0000CF481C020E030E0A901C701B6010E94F9
:100BE000982787FF03C0C12CD12C7601B701A6013D
:100BF000C801B4DB4091AA035091AB036091AC03F0
:100C00007091AD0390E080E0BFDE4091B20350915F
:100C1000B3036091B4037091B50381E090E0B4DE5A
:100C20006091AA037091AB038091AC039091AD03E6
:100C30006F5F7F4F8F4F9F4F6093AA037093AB03FB
:100C40008093AC039093AD030091BD031091BE035C
:100C50000E940E279B01AC016091AE037091AF031F
:100C60008091B0039091B1030E949C27F8016083AA
:100C70007183828393838091B2039091B303A09197
:100C8000B403B091B5030196A11DB11D8093B203C9
:100C90009093B303A093B403B093B5030F900F9058
:100CA000DF91CF911F910F91FF90EF90DF90CF9048
:100CB000089580910C0290910D02A0910E02B091C6
:100CC0000F0259CF8091100290911102A09112024F
:100CD000B091130250CFC12CD12C8FE7E82E83E4C2
:100CE000F82E84CF8F929F92AF92BF92DF92EF92B5
:100CF000FF920F931F93CF93DF93E2E1F3E08AEB30
:100D000093E097838683CDEBD3E0D0935303C093D6
:100D100052030EEA13E0158B048BF0937D03E093EE
:100D20007C03F583E48321E030E0DC012D933C93E8
:100D300089E392E0938782872FEB33E0398328831E
:100D400040E050E060E271E44093B6035093B70393
:100D50006093B8037093B9034FE652E163E87AE316
:100D6000D8014D935D936D937C931397C8E9D3E0BD
:100D700082E89DE9AAE3B2ED88839983AA83BB83C5
:100D800081E199EFA4EBB3EA80939C0390939D03D8
:100D9000A0939E03B0939F0383E691ECAFE2B2EE83
:100DA0008093A0039093A103A093A203B093A30305
:100DB00087E79EE6A5EBB2E98093A4039093A50391
:100DC000A093A603B093A703A6E0B3E0B383A283E6
:100DD000E0E0F3E01196FC93EE938BE492E09183D4
:100DE0008083938382839583848388EA93E0159636
:100DF0009C938E9314971396DC93CE931297179629
:100E00003C932E931697C8EAD8E01882809100028E
:100E100090910102A0910202B09103028887998704
:100E2000AA87BB871D82812C912C540183948982CF
:100E30009A82AB82BC8266E370E080E090E060DA88
:100E40009F838E83DD24D394DD821C86198A8D8650
:100E50009E86AF86B88AE12CF12C8701A801970104
:100E60006BE070E080E090E0F4DA9B8B8A8BD98AAB
:100E7000DF91CF911F910F91FF90EF90DF90BF9086
:100E8000AF909F908F9008958091A80881111DC008
:100E900081E08093A8088091A9089091AA08A09168
:100EA000AB08B091AC080197A105B10571F4809130
:100EB000AD08882351F066E370E080E090E0DCD973
:100EC0009093AF088093AE083EDA8091B408811108
:100ED0002AC081E08093B4088091B5089091B6084B
:100EE000A091B708B091B8080197A105B105D9F450
:100EF0008091B9088823B9F06BE070E080E090E061
:100F000064DA9093BB088093BA0840E050E0BA01DD
:100F100025DA6BE070E080E090E057DA9093BB0850
:100F20008093BA08E7CA08954F925F926F927F92BA
:100F30008F929F92AF92BF92CF92DF92EF92FF92E9
:100F40000F931F93F8944090D3035090D403609074
:100F5000D5037090D603C090C703D090C803E0902B
:100F6000C903F090CA034130510509F0A4C09B01A8
:100F7000AC01241935094609570929013A010091A4
:100F8000CF031091D0032091D1033091D2034801B7
:100F90005901840C951CA61CB71C80169106A2064C
:100FA000B306A0F40091CB031091CC032091CD03A4
:100FB0003091CE030F5F1F4F2F4F3F4F0093CB0356
:100FC0001093CC032093CD033093CE038092CF03B4
:100FD0009092D003A092D103B092D2030091CB03A0
:100FE0001091CC032091CD033091CE038092D70392
:100FF0009092D803A092D903B092DA030093DB0356
:101000001093DC032093DD033093DE036093D3035E
:101010007093D4038093D5039093D603A8EEB3E0E6
:10102000A30192010E94B52E6C0D7D1D8E1D9F1D8A
:101030006093C7037093C8038093C9039093CA0356
:1010400000911B0210911C0220911D0230911E0282
:101050000F3F1F4F2F4F3F4FF1F000911B02109198
:101060001C0220911D0230911E020E3F1F4F2F4F78
:101070003F4F89F0C0901B02D0901C02E0901D02EF
:10108000F0901E0221E08C149D04AE04BF0408F40D
:1010900020E02093E30378941F910F91FF90EF904D
:1010A000DF90CF90BF90AF909F908F907F906F9088
:1010B0005F904F9008954B015C0184189508A60835
:1010C000B708A3019201261B370B480B590B641577
:1010D000750586059705D0F082169306A406B50619
:1010E00040F420E030E0A90181149104A104B1048E
:1010F00091F4A8EEB3E00E94B52EA7019601261B3D
:10110000370B480B590BCA01B901C5CF821693069C
:10111000A406B50670F7A8EEB3E0A50194010E94FD
:10112000B52E6C0D7D1D8E1D9F1DB5CFFDCECF93B1
:10113000DF9300D01F92CDB7DEB71C821B821A82CC
:1011400019821092DF031092E0031092E1031092D3
:10115000E203BE016F5F7F4FCE0103960E942B25F5
:1011600069817A818B819C810E94851E009761F440
:10117000BE016F5F7F4FCE0103960E9437256981C4
:101180007A818B819C812FD50F900F900F900F90BB
:10119000DF91CF910895FF920F931F93CF93DF9329
:1011A000082F60E070E0CB010E949628FF24F394A2
:1011B0000E946E1DEC01892B89F010E0CE3F8FEF6D
:1011C000D80769F0002361F160E070E0CB010E9474
:1011D000962881E090E0892B59F322C011E026D5B2
:1011E000EC01892B21F0CE3F8FEFD80759F7111171
:1011F0001EC011E0229609F410E00E941E1DEC01B1
:10120000892B21F0CE3F8FEFD807E1F6111111C0E5
:1012100011E0CE3F8FEFD80709F410E001110BC0A9
:10122000CE01DF91CF911F910F91FF90089511E0B2
:10123000E4CF11E0F3CF60E070E0CB010E9496288C
:101240001F25812F90E0C7CFCF93DF938091E303D9
:10125000882321F060E070E0CB014DD636D6D0E097
:10126000C0E0892B71F06AE070E080E090E00E94BD
:10127000962881E090DF29D62196C03D27E0D2074D
:1012800081F728D60E94D91E1092FB031092FA0310
:101290001092F4031092F5031092F6031092F703E4
:1012A0001092F0031092F1031092F2031092F303E4
:1012B0001092EC031092ED031092EE031092EF03E4
:1012C0001092E8031092E9031092EA031092EB03E4
:1012D0001092E4031092E5031092E6031092E703E4
:1012E0004EEF5FEF6FEF7FEF40931B0250931C02B6
:1012F00060931D0270931E021092E303E7EDF3E08A
:1013000028E0DF011D922A95E9F71092D30310928D
:10131000D4031092D5031092D6031092CF031092EB
:10132000D0031092D1031092D2031092CB031092EB
:10133000CC031092CD031092CE031092C7031092EB
:10134000C8031092C9031092CA03DF91CF91089588
:1013500010920704109208041092090410920A04D3
:101360001092060480910F0490911004909305044C
:101370008093040410920304109202041092FE035E
:101380001092FF03109200041092010410920C04BA
:1013900010920B0490E080E00895CF92DF92EF92DC
:1013A000FF920F931F93CF938C01019709F055C0C3
:1013B00020910F0430911004809104049091050451
:1013C00040910F045091100450930504409304047D
:1013D0002817390781F0109203041092020410922A
:1013E000FE031092FF031092000410920104109269
:1013F0000C0410920B0480910F049091100401973B
:1014000061F580910B0490910C04892B21F480915B
:101410001F02811112C080910B0490910C0401975E
:10142000E1F48091FE039091FF03A0910004B0913C
:1014300001040197A105B10581F41092FE031092F9
:10144000FF03109200041092010410921F0282E028
:1014500090E090930C0480930B0480910F04909182
:101460001004019709F01CC1809125049091260475
:101470008017910709F014C18091210490912204F2
:10148000A0912304B0912404009709F409C120918C
:10149000200421110DC0409121045091220460913B
:1014A000230470912404452B462B472B09F4F8C0E4
:1014B00020910B0430910C042230310509F0F0C06A
:1014C000209102042111ECC0FC01C080D180E28097
:1014D000F38080910604882309F4D3C0809112041C
:1014E00090911304892B09F4FEC0209112043091CD
:1014F000130481E02230310509F080E020911204CC
:1015000030911304C1E02130310549F020911204DB
:1015100030911304C1E02230310509F0C0E0882386
:1015200009F456C020911C0430911D0440911E0402
:1015300050911F04C701B6010E94982787FD14C06F
:1015400020911C0430911D0440911E0450911F04F1
:1015500060910704709108048091090490910A0435
:101560000E94D92687FD22C020911C0430911D04C1
:1015700040911E0450911F04C701B6010E94982794
:10158000181634F520911C0430911D0440911E045E
:1015900050911F0460910704709108048091090420
:1015A00090910A040E94D926811112C080911404DE
:1015B00090911504A0911604B0911704892B8A2BE1
:1015C0008B2B19F481E08093030481E08093020463
:1015D000CC2309F456C020911C0430911D04409185
:1015E0001E0450911F04C701B6010E94D92687FF2F
:1015F00014C020911C0430911D0440911E04509190
:101600001F0460910704709108048091090490916F
:101610000A040E94982787FF22C020911C04309161
:101620001D0440911E0450911F04C701B6010E9481
:10163000D926811126C020911C0430911D044091AF
:101640001E0450911F04609107047091080480915A
:10165000090490910A040E949827181694F4809126
:10166000140490911504A0911604B0911704892BCD
:101670008A2B8B2B19F481E08093030481E0809303
:10168000020481E090910204911180E080930604AD
:10169000C0920704D0920804E0920904F0920A0470
:1016A0000130110509F067C180910B0490910C0481
:1016B000892BD9F4109211041092020480911F0218
:1016C000882379F082E090E090930C0480930B04DF
:1016D00010921F0220910F043091100481E0232BFF
:1016E000E9F080E01BC081E009CF10921F028091D9
:1016F0001104882349F01092030410920C041092F4
:101700000B0410921104EDCF80910F0490911004FE
:10171000892BE1F0809102041092020420910B04C5
:1017200030910C042230310509F45EC088F4211593
:10173000310509F448C02130310509F4F3C0109295
:101740000304109202041092110438C081E0E6CF25
:101750002330310509F4B1C02430310581F74091BF
:10176000FE035091FF036091000470910104411544
:1017700051056105710561F0415051096109710917
:101780004093FE035093FF036093000470930104A1
:101790004091FE035091FF03609100047091010499
:1017A000452B462B472BD9F420910D0430910E0484
:1017B0002130310509F046C01092030410920C0448
:1017C00010920B040CC080911F02882341F082E02C
:1017D00090E090930C0480930B0410921F021092DF
:1017E000FC0380910304CEC08823C9F380911404C4
:1017F00090911504A0911604B091170418161906BB
:101800001A061B060CF07DC080910F049091100405
:10181000019709F076C08091140490911504A0916D
:101820001604B09117048093FE039093FF03A093D6
:101830000004B093010483E090E090930C04809343
:101840000B04CDCF409118045091190460911A04F3
:1018500070911B04452B462B472BA9F010920304D3
:101860008091180490911904A0911A04B0911B045E
:101870008093FE039093FF03A0930004B0930104B0
:1018800081E090E0DACF882399F080912002909156
:101890002102A0912202B09123028093FE03909333
:1018A000FF03A0930004B093010484E090E0C5CF4F
:1018B0001092030482E090E0C0CF8091FE039091EB
:1018C000FF03A0910004B09101040097A105B105A8
:1018D00059F00197A109B1098093FE039093FF038A
:1018E000A0930004B09301048091FE039091FF0344
:1018F000A0910004B0910104892B8A2B8B2B09F055
:101900006ECF8091200290912102A0912202B0918D
:101910002302892B8A2B8B2B09F44ECF81E08093F5
:101920000304B3CF4091FE035091FF036091000484
:1019300070910104411551056105710561F0415037
:101940005109610971094093FE035093FF036093AD
:101950000004709301044091FE035091FF036091D5
:10196000000470910104452B462B472B09F037CF1B
:101970008111C7CF9FCF8091FC03882309F431CF19
:101980008091FD03CF911F910F91FF90EF90DF9019
:10199000CF90089510920704109208041092090441
:1019A00010920A041092060410920C0410920B0478
:1019B000109205041092040410922604109225043B
:1019C00010920304109202041092FE031092FF037F
:1019D00010920004109201041092FD031092FC0377
:1019E00010922104109222041092230410922404D5
:1019F0001092200410921C0410921D0410921E04D8
:101A000010921F0488EE93E0A0E0B0E080932002E3
:101A100090932102A0932202B09323021092180403
:101A20001092190410921A0410921B0410921404BC
:101A300010921504109216041092170410921304B9
:101A40001092120481E080931F02109211041092F0
:101A5000100410920F0410920E0410920D0490E0E6
:101A600080E0089580910F0490911004892B19F55E
:101A700080911F02882351F080911104811106C0CA
:101A800081E08093FD038093FC030895209111046D
:101A900030911F0281E090E0332311F090E080E06C
:101AA00030E082239323892B21F01092FD0381E003
:101AB000EACF1092FC03089582E090E0FA0191834E
:101AC00080838FEF9FEF0895CF93DF93EA01009714
:101AD00011F00E9402201982188290E080E0DF91CC
:101AE000CF910895DB01009719F48FEF8C9308953F
:101AF0002EEF2C93FC013F96EF30F10508F034C037
:101B00008827EA57F24F8F4F0C949E2EB20DB00DDE
:101B1000AE0DAC0DAA0DA60DA80DA40DA20DA00D25
:101B20009D0D990D950D9B0DB40D80E311968C9331
:101B3000089589E2FBCF82E2F9CF11961C920895B5
:101B400083E2F4CF81E2F2CF81E1F0CF87E2EECF02
:101B50008AE2ECCF80E1EACF84E2E8CF88E2E6CF08
:101B600086E2E4CF81E3E2CF80E2E0CF80913304EC
:101B7000909134040895909334048093330408952D
:101B800080913204089590913204892B809332041D
:101B90000895982F90958091320489238093320480
:101BA000089580913104089580912F04909130041C
:101BB00008956115710559F0FB0130E020E070E0F7
:101BC00060E02417350719F06115710511F0CB019C
:101BD0000895A081B181A817B90709F4BF012F5F4B
:101BE0003F4F3696EECF8091350481111CC060D2F4
:101BF00066D290932804809327040E9406180E94BE
:101C0000181890932C0480932B040E94861C0E9429
:101C10008D1C90932A048093290481E080933504DD
:101C200090E080E0089584EF9FEF08958F929F9257
:101C3000AF92BF92CF92DF92EF92FF920F931F93DA
:101C4000CF93DF9300D000D000D01F92CDB7DEB786
:101C50001A86198618861F821E821D821C821B828C
:101C60001A8219828091350407EF1FEF882309F447
:101C70009CC08E010D5F1F4F9E012B5F3F4FAE0139
:101C8000495F5F4FBE01675F7F4F90E080E00E9439
:101C90000A1E8C01009721F00596029708F0DBC020
:101CA00029853A852115310509F402C1ED80FE80B0
:101CB0004B815C81B701640F751F8F8198858617F2
:101CC000970708F4F5C0E20EF31ED7019C91903CF3
:101CD00009F07FC04230510508F47BC011968C9109
:101CE0004091330450913404452B09F49CC0913F3A
:101CF00008F071C02CE1290F2D3008F48BC02DE2C3
:101D0000290F203108F489C0903C21F481508230A1
:101D100008F483C088E3890F8B3008F481C092E710
:101D2000C92E9DE0D92EECE5FDE06D817E81AE01EE
:101D30004F5F5F4F89859A8519955C01C114D10465
:101D4000A1F189809A808114910479F18B819C8121
:101D50008815990508F487C010E000E04B815C818C
:101D600070E060E0C7010E94C82E01151105E9F47A
:101D700049815A8169857A858D819E81680F791F95
:101D8000C501F6011995E980FA800D811E812F8128
:101D9000388549855A856FEF7FEF81E090E00E949A
:101DA000A51D8C01892B09F056C0C8012A960FB6D3
:101DB000F894DEBF0FBECDBFDF91CF911F910F9181
:101DC000FF90EF90DF90CF90BF90AF909F908F905B
:101DD000089580E085CF30E020E0220F331FF90125
:101DE000E95DFB4F0190F081E02D309709F497CF2A
:101DF000892F90E01995009709F491CFDC01129694
:101E0000ED91FC9113971496CD90DC90309709F0EA
:101E10008CCF1FC021E030E0E0CF22E030E0DDCF0A
:101E200023E030E0DACFD12CC12CE4E6FDE09F3F87
:101E300009F07BCFE0912704F0912804309721F43A
:101E4000C90104EF1FEF0CC08FEF90E019950097C8
:101E5000A9F604EF1FEF89859A85009709F4A5CFAD
:101E60000E940220A2CF0E94D41E8C0189859A85EF
:101E70000E94022070E060E0C4010E946D1E9887FD
:101E80008F830E94A21D9E838D836F81788561154B
:101E9000710559F0C8010E9461219A87898706EF70
:101EA0001FEF892B09F058CF59CF08EF1FEF56CFFE
:101EB00008EF1FEFD0CF20913504222319F020E046
:101EC0000C941D1887EF9FEF089580913304909133
:101ED000340408950E94921C0E94EC1BF5D0E7E2A6
:101EE000F4E088E0DF011D928A95E9F7109235044D
:101EF00090E080E008950C944B1A21E040E050E01F
:101F0000BA010C941D1886E090E0FA019183808359
:101F100090E080E0089547E050E06EE472E049CE42
:101F2000DF92EF92FF920F931F93CF93DF938A017B
:101F3000EC01C60FD71FE0903904F0903A04D98025
:101F40000E94BC1ED816190678F082E090E0F801D5
:101F5000918380838EEF9FEFDF91CF911F910F913F
:101F6000FF90EF90DF900895EF2841F482E090E039
:101F7000F8019183808384EF9FEFEECF8981809376
:101F8000380490E00196F8019183808390E080E02E
:101F9000E3CFCF93DF93EA010E94FC1A882321F05C
:101FA0000E94C91E0E94FD1A82E090E099838883F6
:101FB0008BEF9FEFDF91CF910895CF93DF93EB01EC
:101FC00086E0FB0111928A95E9F78FEF8883D8DDCF
:101FD0008983E7DD8A83E8DD9D838C83DF91CF9160
:101FE0000895CF93DF93EA010E94FF1A811109C07F
:101FF00082E090E09983888385EF9FEFDF91CF9116
:10200000089590E080E0B7DD81E090E099838883D7
:1020100090E080E0F3CF0F931F93CF93DF93EA011B
:102020008C01060F171F0E94FF1A81110BC082E05E
:1020300090E09983888385EF9FEFDF91CF911F9187
:102040000F910895F8018181823038F082E090E0AC
:10205000998388838EEF9FEFF0CF81E090E08BDD56
:1020600088E090E09983888390E080E0E6CFCF938A
:10207000DF930097D1F4EB01FB01329686E0DF019C
:102080001D928A95E9F78FEF888385E089831A820C
:102090000E94BC1E8B830E94BB1E9D838C8381E0AB
:1020A0008E838F83DF91CF910895DF91CF911ACDE9
:1020B0008BE89FE0909337048093360408958091D5
:1020C0003604909137040895109237041092360424
:1020D00008958091390490913A040895411105C002
:1020E000611571058105910561F060933904709364
:1020F0003A0480933B0490933C0440933D0481E078
:10210000089580E00895FF920F931F93CF93DF937C
:102110008A01EC01C60FD71FF9800E94BC1EF81679
:10212000190668F082E090E0F801918380838EEFD9
:102130009FEFDF91CF911F910F91FF9008956C81D8
:102140007D818E819F814B81C9DF811108C082E032
:1021500090E0F8019183808384EF9FEFEACF89813B
:102160008093380490E00196F8019183808390E099
:1021700080E0DFCFCF93DF93EA01FC01E60FF71F8A
:1021800064817581868197814381A8DF811109C0AF
:1021900082E090E09983888384EF9FEFDF91CF9175
:1021A000089581E090E09983888390E080E0F6CF05
:1021B000E9E3F4E04081518162817381480F511D50
:1021C000611D711D40835183628373830895CF9392
:1021D000C09138044C2F50E06091390470913A045A
:1021E00001960E94BF2E8C2FE3DF10923804CF910E
:1021F0000895009799F48091390490913A042FEF53
:10220000FB012083892B59F02091380430E02F5FA7
:102210003F4F2417350719F4CB01D9CF63CC08956C
:10222000009799F48091390490913A042FEFFB01C3
:102230002083892B59F02091380430E02F5F3F4FE5
:102240002417350719F4CB01C2CF4CCC089523E1F4
:10225000AC01249FC001259F900D1124E091420400
:10226000F0914304E80FF91F238134812250310992
:1022700081E02230310508F080E008950F931F932C
:10228000CF93DF930091440410914504D0E0C0E067
:1022900080E00C171D0749F491E0811190E0892F2F
:1022A000DF91CF911F910F9108958111F5CFCE014C
:1022B000CEDF2196EECFA0914204B0914304109757
:1022C00029F1209144043091450482179307F0F4DA
:1022D00053E1589F9001599F300D1124A20FB31F55
:1022E000ED91FC911197309789F012968C916817B7
:1022F00068F48BE0689FE00DF11D112480819181CD
:10230000892B21F081E09281491708F080E008953F
:102310009C0143E1429FC001439F900D1124E09135
:102320004204F0914304E80FF91F8385823099F449
:1023300081E090E0658176814091240250912502F0
:102340006417750711F490E080E0892B21F081E09B
:102350002230310508F080E00895EF92FF920F934C
:102360001F93CF93DF93EA01FC01E60FF71F028171
:102370001381E480F5804F2D6E2DC8019CDF811103
:102380000DC082E090E0998388838EEF9FEFDF910C
:10239000CF911F910F91FF90EF900895C80157DFE3
:1023A000882339F082E090E09983888388EF9FEF5B
:1023B000EECF10932B0200932A02E0922C02F092AF
:1023C0002D0281E090E09983888390E080E0DFCF68
:1023D000CF92DF92EF92FF920F931F93CF93DF93F1
:1023E0007A01EC01C60FD71FC0902A02D0902B02B1
:1023F00000912C0210912D02412F602FC6015BDF4E
:10240000811110C082E090E0F701918380838AEF10
:102410009FEFDF91CF911F910F91FF90EF90DF9091
:10242000CF900895C60113DF882341F082E090E049
:10243000F7019183808388EF9FEFEBCF4C815D8123
:102440006E817F819A8189818F3F41F082E090E0A7
:10245000F701918380838EEF9FEFDBCFE3E1EC9D6B
:102460009001ED9D300D1124E0914204F091430460
:10247000E20FF31F0190F081E02D2BE0029FE00DB1
:10248000F11D11240190F081E02D27E0129FE00D55
:10249000F11D1124808391838B8182834383548334
:1024A000658376831F5F10932D0281E090E0F70132
:1024B0009183808390E080E0ACCFEF92FF920F9306
:1024C0001F93CF93DF937A018C01060F171FC091E2
:1024D0004204D0914304209781F021E030E0F801DC
:1024E000828193814091440450914504841795075B
:1024F00010F030E020E0232B71F482E090E0F7014F
:10250000918380838EEF9FEFDF91CF911F910F9189
:10251000FF90EF90089543E1489F9001499F300D4F
:102520001124C20FD31F93DE882341F082E090E094
:10253000F7019183808388EF9FEFE6CFF801248134
:10254000358120383105C8F687818111D6CF418188
:10255000842F90E08F7E009741F082E090E0F701B9
:102560009183808386EF9FEFCFCF4F833E832D8370
:10257000268128871986223010F421E0288721E05F
:1025800030E0F70131832083BFCF88E090E0FA018B
:102590009183808390E080E00895FB018FEF80833A
:1025A00081E181838FEF9FEF9383828380E890E0C6
:1025B00095838483168217820895FB018FEF8083B1
:1025C00091E0918382839383848384E3858381E094
:1025D00090E0978386830895BF92CF92DF92EF9227
:1025E000FF920F931F93CF93DF93DA01FC01E60F65
:1025F000F71F8181813081F082E090E08D939C9380
:102600008FEF9FEFDF91CF911F910F91FF90EF9090
:10261000DF90CF90BF900895C281D381B48085812F
:1026200006811781E0904204F0904304E114F10424
:1026300039F482E090E08D939C938CEF9FEFE2CF92
:102640002091440430914504C217D30738F082E04A
:1026500090E08D939C938EEF9FEFD4CFC230D10545
:1026600038F082E090E08D939C9386EF9FEFCACF85
:102670009B2D9D7FB1F78130A1F7B11005C00130CE
:10268000110531F080E004C081E002301105D0F383
:10269000882339F36D01CE01DADD882341F082E031
:1026A00090E0F6019183808388EF9FEFABCF83E1C9
:1026B0008C9FF0018D9FF00D1124EE0DFF1DB38650
:1026C00081E0848716870587108A178681E090E06D
:1026D000F6019183808390E080E094CF4CE050E05D
:1026E00068E772E066CA8F929F92BF92CF92DF92A4
:1026F000EF92FF920F931F93CF93DF93EA01FC01B8
:10270000E60FF71F828193810481B580E091420436
:10271000F0914304309791F482E090E099838883AC
:102720008CEF9FEFDF91CF911F910F91FF90EF9072
:10273000DF90CF90BF909F908F9008952091440498
:10274000309145048217930738F082E090E0998336
:1027500088838EEF9FEFE6CF23E1289F6001299FBA
:10276000D00C1124EC0DFD1DE080F180E114F1048A
:1027700099F28281081748F78BE0089F80011124A5
:10278000E00EF11EF70180819181892B29F6BB2093
:10279000E1F2F7E0BF9E40011124C4010E94B41F82
:1027A000F70191838083E0914204F0914304EC0DA2
:1027B000FD1D0190F081E02DE00FF11F80819181DE
:1027C000009739F482E090E0998388838DEF9FEF42
:1027D000A9CFA40170E060E00E94C82E809142045D
:1027E00090914304C80ED91EF60180819181080F93
:1027F000191FF801B28281E090E09983888390E00C
:1028000080E090CFAF92BF92CF92DF92FF920F9372
:102810001F93CF93DF93EA01FC01E60FF71F82813C
:102820009381F48000914204109143040115110535
:1028300081F482E090E0998388838CEF9FEFDF91B1
:10284000CF911F910F91FF90DF90CF90BF90AF90ED
:10285000089520914404309145048217930738F07D
:1028600082E090E0998388838EEF9FEFE8CF2FEF8F
:102870002F0D2C3FA8F723E1289F6001299FD00C42
:1028800011240C0D1D1DF80180819181892B89F681
:10289000FBE0FF9E50011124C5010E94B41FF80106
:1028A00091838083E0914204F0914304EC0DFD1D7F
:1028B00080819181009739F482E090E09983888348
:1028C0008DEF9FEFBCCFA50170E060E00E94C82EA5
:1028D000E0914204F0914304EC0DFD1DF28281E091
:1028E00090E09983888390E080E0A9CFCF92DF9237
:1028F000EF92FF920F931F93CF93DF93860F971F53
:10290000FC01028113818091420490914304892B40
:1029100081F082E090E0FA01918380838CEF9FEF59
:10292000DF91CF911F910F91FF90EF90DF90CF90AB
:102930000895C801B0E0A0E00197A109B1098F3F57
:102940009F4FA105B10540F082E090E0FA0191832C
:1029500080838EEF9FEFE4CF7A0183E1809F600157
:10296000819FD00C1124C6010E94B41FEC01009776
:1029700041F482E090E0F701918380838DEF9FEF37
:10298000CFCFA60170E060E00E94C82ED093430430
:10299000C0934204109345040093440490E080E007
:1029A0002FEF3FEF41E061E070E08017910741F4C5
:1029B00081E090E0F7019183808390E080E0B0CFE8
:1029C0003A8B298B1B864C877E876D87188A1F86DA
:1029D00001966396EACFCF92DF92EF92FF920F9328
:1029E0001F93CF93DF93EC01D12CC12C10E000E0BA
:1029F000F12CE12C6A816017110609F0CCF483E018
:102A0000689FB0011124AE014F5E5F4FC7010E9465
:102A10002E20009721F02FEF3FEF3A8B298BDF918B
:102A2000CF911F910F91FF90EF90DF90CF9008957D
:102A3000E881F981EC0DFD1D438154818D859E85D2
:102A4000489F9001499F300D589F300D1124C901B6
:102A500001960115110519F44F8144FD049661E0BA
:102A600070E00E946D1EE816F90608F47C010F5F05
:102A70001F4F8BE0C80ED11CBDCFF89420914004AD
:102A80003091410481E02115310509F080E0232BCC
:102A900009F0789408952F923F924F925F926F922F
:102AA0007F928F929F92AF92BF92CF92DF92EF92DE
:102AB000FF920F931F93CF93DF933C01660E771E17
:102AC000F301828193814C01B12CA12CC09142046D
:102AD000D0914304209769F021E030E060914404F4
:102AE000709145048617970710F030E020E0232B03
:102AF000D1F482E090E0FA01918380838EEF9FEF22
:102B0000DF91CF911F910F91FF90EF90DF90CF90C9
:102B1000BF90AF909F908F907F906F905F904F90FD
:102B20003F902F90089580922E0290922F02A092B3
:102B30003002B092310263E1689F9001699F300DCD
:102B40001124C20FD31FF3018181833040F082E052
:102B500090E0FA019183808386EF9FEFD1CF2A0125
:102B60002B813C81232BF1F4288139819F8191FFB6
:102B70002EC0232B09F46FC0209147049A81422F65
:102B8000490F5527551FBA0141E050E061387105E2
:102B900014F050E040E0452B09F45DC02A87920F05
:102BA000909347048150823008F481C066DF882307
:102BB00009F4D8C0F3018181813009F48DC008F493
:102BC0007BC0823009F4C6C090E080E0ADC0232B0A
:102BD00009F441C0209146049A81E22FE90FFF27B2
:102BE000FF1F41E050E0ED3FF10514F050E040E000
:102BF000452B89F12A87920F90934604D3CFA08169
:102C0000B181A20FB31F11966C91060F111D019691
:102C1000295F3F4F8417950794F38D859E85089F04
:102C20001001099F300C189F300C1124C114D104DD
:102C3000D1F48F8184FF17C00E94BB1EF5E02F0ED8
:102C4000311C21E08215930508F420E0A701455FBF
:102C50005F4F21110EC082E090E0F20191838083EA
:102C600087EF9FEF4DCF0E94BB1E2FEF221A320A33
:102C7000E8CF88819981E80EF91EF7011483038358
:102C8000FFEFCF1ADF0A7A018A818C151D0409F043
:102C90000CF48CCFE881F981EE0DFF1D428150E0EC
:102CA00030E020E010E000E090E080E0B3CFF12CD5
:102CB000E12CD12CC12CE8CF81E090E09C838B8368
:102CC000DDDA882309F480CF81E090E00E94BB0D1B
:102CD00080E40E94C90D78CF89899A89019661F0B4
:102CE00083E090E09C838B8382E090E00E94BB0DA8
:102CF00080E40E94C30D68CF2D813E818091240223
:102D00009091250228173907D1F46091280270911B
:102D10002902AE014F5E5F4F8091260290912702FB
:102D20000E9420210097E1F2789422E030E0F20145
:102D300031832083892B99F08DEF9FEFE1CE22E044
:102D400082169104A104B1045CF6CE0144DE188A17
:102D50001F86E8CF82E090E09C838B8335CF90E0A4
:102D600080E0CECE82E090E0F2019183808385EF17
:102D70009FEFC6CE8F929F92AF92BF92CF92DF927B
:102D8000EF92FF920F931F93CF93DF93EA018C0191
:102D9000060F171FF8018181833098F082E090E0E0
:102DA0009983888386EF9FEFDF91CF911F910F91D9
:102DB000FF90EF90DF90CF90BF90AF909F908F905B
:102DC00008958091420490914304892B61F081E041
:102DD00090E02091440430914504232B11F490E0BD
:102DE00080E0892B39F482E090E0998388838EEF2C
:102DF0009FEFDACF42DE882309F4DEC0F80181813B
:102E0000813009F494C0E8F0823099F420914404B0
:102E100030914504E0914204F091430490E080E059
:102E200041E050E02817390709F0BCC027DA8111CA
:102E300017C0789481E090E09983888390E080E0E7
:102E4000B3CF2091440430914504E0914204F091C5
:102E5000430490E080E041E050E02817390741F456
:102E600081E090E00E94BB0D80E40E94C90DE1CF9B
:102E700063817481672B11F05483438301967396A9
:102E8000ECCFE0914204F0914304E00FF11F238165
:102E9000348122303105D9F4218932892F3F3F4FC7
:102EA000B1F44581568120912402309125024217C8
:102EB000530761F5AF014F5E5F4F6091280270913B
:102EC000290280912602909127020E9420214FEF33
:102ED000C41AD40AE40AF40A0D5E1F4F4091440458
:102EE0005091450470E060E0C416D506E606F7068A
:102EF00034F5009731F27894892B09F49BCF82E066
:102F000090E0998388838DEF9FEF4ECF22E0C21629
:102F1000D104E104F104DCF6CF015DDDE09142046F
:102F2000F0914304E00FF11F108A1786D0CF10E014
:102F300000E090E080E0C12CD12C7601CFCF00974B
:102F4000D1F610E000E0812C912C540183E0E82EB2
:102F5000F12C1AC0E0914204F0914304E00FF11FFC
:102F600083819481029749F4F482E38282E090E0C5
:102F70000E94BB0D80E40E94C30D8FEF881A980A4F
:102F8000A80AB80A0D5E1F4F809144049091450431
:102F9000B0E0A0E088169906AA06BB06DCF290E035
:102FA00080E0A9CF638174816230710511F454838C
:102FB00043830196739636CF82E090E099838883AD
:102FC00085EF9FEFF1CE0097B9F48FEFFB0180837F
:102FD00020912E0230912F0243E1429FC001439F76
:102FE000900D1124E0914204F0914304E80FF91F81
:102FF0008285FB01818308950C94720D88E090E036
:10300000FA019183808390E080E00895109241045A
:1030100010924004E2E4F4E086E0DF011D928A951C
:10302000E9F78EE693E190933F0480933E04089580
:1030300080913E0490913F0408952F923F924F92C9
:103040005F926F927F928F929F92AF92BF92CF9238
:10305000DF92EF92FF920F931F93CF93DF93CDB741
:10306000DEB760970FB6F894DEBF0FBECDBFF89401
:10307000E0914004F09141043196F0934104E093D3
:1030800040047894A0914204B0914304BA83A98388
:10309000109709F4FAC1E0914404F0914504EF2B34
:1030A00009F4F3C128874B875C876D877E879A87F1
:1030B0008987B88BAF87312C212CF12C512C412CD6
:1030C00080914404909145042816390610F4FF209D
:1030D00029F1F894809140049091410401979093D4
:1030E0004104809340047894C20160960FB6F8942E
:1030F000DEBF0FBECDBFDF91CF911F910F91FF902B
:10310000EF90DF90CF90BF90AF909F908F907F9087
:103110006F905F904F903F902F900895B10190E095
:1031200080E087D4682EEF85F889878181FD3DC0D6
:10313000838194810397C9F5258136813C832B8354
:1031400089859A852817390781F5C101E1D8782E3C
:103150008823A9F1AF85B8891F968D919C915097CE
:10316000019621E01D964D915C918417950709F019
:1031700020E02F83B12CA12CEF85F88982818A155C
:103180001B0419F014F0FF20E9F0F885FF2309F47F
:103190006CC1AF85B88950961C921E921F9766200D
:1031A00021F0B10190E080E046D4FFEF2F1A3F0AF2
:1031B0002F8538892D5E3F4F388B2F8781CFB1E027
:1031C000BF83D8CFBFD49E838D83E885EE23E9F0FB
:1031D000772009F43CC1AF85B8891F968D919C91E9
:1031E000892B79F0BBE0BA9DC001BB9D900D1124E5
:1031F000AF85B889ED91FC91E80FF91F8581968123
:1032000001D7BFEFAB1ABB0AB7CF81E0772039F007
:10321000EF85F88927853089232B09F080E0F82E87
:10322000E12CA114B10439F4AF85B8891796EC905C
:10323000E4FAEE24E0F8BBE0BA9D6001BB9DD00C3F
:103240001124882309F424C1AF85B889ED91FC913C
:103250001197EC0DFD1D438154811D962D913C91DC
:10326000429FC001439F900D529F900D1124E11089
:103270005DC001969087878361E070E087819085CB
:103280002CD5EF85F88921893289008111810C0DB7
:103290001D1D2F3F320709F44BC0BC01C9010E941C
:1032A0006121D80116969C938E931597AF85B889A6
:1032B000ED91FC911197EC0DFD1D05811681011515
:1032C000110509F4CDC0ED81FE810E0F1F1F1A9666
:1032D0008C918A0DD8018C93E1102FC00F5F1F4F86
:1032E000AF85B889ED91FC91EC0DFD1D128701872A
:1032F000AF85B889ED91FC91EC0DFD1D858196811E
:10330000892B09F4A4C080912402909125022B817D
:103310003C812817390709F465C0772011F0018531
:103320001285912C812C1A8219824AC00596A2CF4F
:103330001BD6F80196838583B9CF8B859C85AD8597
:10334000BE85F80181839283A383B4830B5F1F4FF3
:10335000C7CFE080F180E80CF91CD70113966D917E
:103360007C9114978C918F3F09F473C0E1E0F0E0F9
:1033700002C0EE0FFF1F8A95E2F7CF01092E000C65
:10338000AA0BBB0BFB0140815181628173818423B5
:103390009523A623B72321E0892B8A2B8B2B09F4B5
:1033A00020E0D8012C93D70111968C91080F111DA4
:1033B000E981FA813196FA83E983F7E08F0E911C57
:1033C000AF85B889ED91FC91EC0DFD1D82812981BD
:1033D0003A818217130611F00CF0BBCF772011F061
:1033E000128701873F81332391F1AF85B889ED9131
:1033F000FC91EC0DFD1D61E070E0878190856DD43E
:10340000AF85B889ED91FC91EC0DFD1DE780F0844E
:1034100045815681E1E0F0E0662011F0F0E0E0E067
:103420000D811E819C01B101882799278E1B9F0B5E
:103430008CD32C01892B59F0EF85F88980819181FB
:10344000C80ED91ED60115968D919C91DBD5F12C15
:10345000D8CEF701418150E0C8010E94BF2EA3CF12
:1034600086EF482E55245A94CCCEEF85F88987856F
:1034700090890196908B87872585368582179307DB
:1034800009F08DCE108A17868ACE512C412C21CE80
:1034900010E000E02DCF2F923F924F925F926F92FB
:1034A0007F928F929F92AF92BF92CF92DF92EF92D4
:1034B000FF920F931F93CF93DF93809142049091DB
:1034C000430410E000E0892BA9F0D7DA0AEF1FEFE0
:1034D000882381F02090440430904504C091420438
:1034E000D0914304D12CC12C10E000E02C143D04F9
:1034F000A9F47894C801DF91CF911F910F91FF90AB
:10350000EF90DF90CF90BF90AF909F908F907F9083
:103510006F905F904F903F902F900895C6010E944A
:103520008811882309F18B819C810397E9F48F85A9
:103530009889892BC9F0B60190E080E07AD221E029
:1035400030E0882311F030E020E044245524421A72
:10355000530AB12CA12C912C812C8A818815190435
:1035600009F038F4188A1F864FEFC41AD40A6396FC
:10357000BDCFE881F981EA0DFB1D85819681892BFC
:10358000A1F161E070E087819085A7D33C01DAD298
:103590008C01E881F981EA0DFB1D818592852581E9
:1035A0003681200F311FAC01421B530B9A0147811A
:1035B0005085421B530B70E060E00E94C82EE881EA
:1035C000F981EA0DFB1DE780F08445815681930166
:1035D000B601C201BAD28C01892B39F0E881F98198
:1035E000EA0DFB1D858196810DD55FEF851A950A41
:1035F0008BE0A80EB11CB1CF40CA789408952F92E9
:103600003F924F925F926F927F929F92AF92BF9242
:10361000CF92DF92EF92FF920F931F93CF93DF939E
:1036200000D000D0CDB7DEB7009142041091430422
:10363000992493940115110509F43EC0A090440407
:10364000B09045041ADA982E8823B1F11092430401
:1036500010924204109245041092440410924604C1
:10366000109247048FEF9FEFDC0180932E0290931E
:103670002F02A0933002B093310278947ED31E8340
:103680000D83C12CD12C7601C501B0E0A0E0898367
:103690009A83AB83BC8322242A94322C89819A8119
:1036A000AB81BC81C816D906EA06FB06F4F0C80156
:1036B000A9D480E40E94C90D892D26960FB6F894EE
:1036C000DEBF0FBECDBFDF91CF911F910F91FF9055
:1036D000EF90DF90CF90BF90AF909F907F906F90D2
:1036E0005F904F903F902F900895AD81BE811596C9
:1036F0002D913C91169780912402909125022817D4
:103700003907D1F451968D919C91C9D5ED81FE81F7
:1037100080819181B12CA12C412C512C3201892B1B
:1037200081F5BFEFCB1ADB0AEB0AFB0AED81FE81C4
:103730007396FE83ED83B2CFB2E0CB16D104E104E1
:10374000F10424F7ED81FE81818992898F3F9807EA
:1037500009F020D5AD81BE8152963C922E925197B0
:10376000D5CF8A0D9B1DDC018D919C91009709F0AE
:1037700049D4BFEF4B1A5B0A6B0A7B0AEBE0AE0E33
:10378000B11CAD81BE818D919C91119712964C9187
:1037900050E070E060E044165506660677060CF3CC
:1037A00031D4BFCFCF93DF93EA0129DF811109C064
:1037B00082E090E09983888385EF9FEFDF91CF913E
:1037C000089581E090E00E94BB0D81E090E0998334
:1037D000888390E080E0F2CF12DF10923F041092D5
:1037E0003E04089542E050E060EC72E00C94D90D84
:1037F000FF920F931F93CF93DF938A01EC01C60FC3
:10380000D71FF980B9D20897F816190671F068F039
:1038100082E090E0F801918380838EEF9FEFDF914B
:10382000CF911F910F91FF9008956C817D818E81C2
:103830009F814B810E946E10811108C082E090E050
:10384000F8019183808384EF9FEFE9CFF9800E9494
:1038500069104F2D50E0BE01685F7F4F0E94BF2E60
:1038600089810E94D81081E090E0F80191838083E3
:1038700090E080E0D4CFDF92EF92FF920F931F93FE
:10388000CF93DF938A01EC01C60FD71F0E94691006
:103890007C01D98071D2DD2059F0029721E030E01F
:1038A000D816190619F010F030E020E0232B79F437
:1038B00082E090E0F801918380838EEF9FEFDF91AB
:1038C000CF911F910F91FF90EF90DF900895EF2817
:1038D00041F482E090E0F8019183808384EF9FEFD0
:1038E000EECFF9800E9469104F2D50E0BE016E5F4F
:1038F0007F4F0E94BF2E89810E94D81081E090E006
:10390000F8019183808390E080E0D9CF82EF9BE142
:1039100090934904809348040895809148049091BD
:10392000490408950895FC011182108293838283D3
:103930000895DB011D921C92DC011296ED91FC9121
:1039400013977183608313967C936E9312970895F7
:10395000FC0180819181DB018D939C93A081B181D9
:10396000109741F08D919C9191838083892B11F464
:10397000F383E2830895FC0180819181DB018D93C3
:103980009C93892B11F47383628371836083089500
:10399000FC0111821082938382830895CF93DF9379
:1039A0001F921F92CDB7DEB71A821982F894BE011A
:1039B0006F5F7F4F8FE494E0CBDF89819A8100971E
:1039C00009F020D389819A81892B89F7BE016F5F25
:1039D0007F4F83E594E0BCDF89819A81009709F0ED
:1039E00011D389819A81892B89F778940F900F9050
:1039F000DF91CF910895CF93DF931F921F92CDB7A0
:103A0000DEB71A821982F894BE016F5F7F4F8BE494
:103A100094E09EDF89819A81009709F0F3D2898131
:103A20009A81892B89F778940F900F90DF91CF912D
:103A3000089581E0089590E080E00895EF92FF926C
:103A40000F931F93CF93DF931F921F92CDB7DEB7D3
:103A50001A82198280914A0407EF1FEF8823A1F18F
:103A6000F894BE016F5F7F4F83E594E071DF789437
:103A700089819A81EE24E394F12C892B51F4F894F6
:103A8000BE016F5F7F4F8FE494E062DF7894F12C8A
:103A9000E12C89819A810EEF1FEF0097A9F0FC01BC
:103AA0004281538164E070E00AD68C01892B61F079
:103AB000F89469817A81C701880F991F880F991F2F
:103AC000815B9B4F58DF7894C8010F900F90DF9176
:103AD000CF911F910F91FF90EF9008950F931F9337
:103AE000CF93DF9300D01F92CDB7DEB71C821B822D
:103AF0001A82198280914A0407EF1FEF8823C1F0D0
:103B0000AE014D5F5F4F64E070E0CE0101964AD692
:103B10008C01892B69F4E981FA818B819C819383E3
:103B20008283F89469817A818BE494E002DF78944F
:103B3000C8010F900F900F900F90DF91CF911F91C0
:103B40000F9108954FD7049608958F929F92AF9248
:103B5000BF92CF92DF92EF92FF920F931F93CF937A
:103B6000DF931F921F92CDB7DEB71A821982BC0174
:103B70006F5F7F4F6330710598F0AA24AA94BA2C26
:103B8000C5010F900F90DF91CF911F910F91FF9082
:103B9000EF90DF90CF90BF90AF909F908F9008955F
:103BA0004115510551F3480159018A016C01CADFE1
:103BB0008815990511F7E114F104F9F28E0D9F1D96
:103BC000A816B906D0F280914A048823F1F0F8943F
:103BD000B501645071099701AE014F5F5F4FC80195
:103BE000049675D65C01892B71F489819A81F8015C
:103BF00093838283C601880F991F880F991FB8018C
:103C0000815B9B4F96DE7894BBCF87EFA82EBB24B9
:103C1000BA94B6CFAF92BF92CF92DF92EF92FF925B
:103C20000F931F93CF93DF931F921F92CDB7DEB7F1
:103C30001A821982892B09F047C06115710509F4B0
:103C400043C04115510509F43FC02115310509F460
:103C50003BC001151105C1F180914A048823B9F1D7
:103C600079016A015B01F894BE016F5F7F4F8BE4BD
:103C700094E06EDE789489819A81009759F1DC0195
:103C800012966D917C91A80104963AD68C01E98137
:103C9000FA81D501ED93FC93828193810496F6011C
:103CA000918380834FDFD7018D939C93C8010F9040
:103CB0000F90DF91CF911F910F91FF90EF90DF90C8
:103CC000CF90BF90AF9008950FEF1FEFEFCF07EFAA
:103CD0001FEFECCF0EEF1FEFE9CFCF93DF93EC0197
:103CE000672B71F488D68C179D0760F07BD62496DD
:103CF000C80FD91F7AD68C0F9D1FDF91CF910895E1
:103D000077D6F1CF90E080E0F8CF0F931F93CF9359
:103D1000DF9320914A0421112BC08B01EC018FE429
:103D200094E001DE83E594E0FEDD8BE494E0FBDDCE
:103D300097D00097C1F45FD670E060E0CEDF42E339
:103D400052E062E070E08AD1009769F4809132021B
:103D50009091330262D6B801CE0197D4009719F43E
:103D600021E020934A04DF91CF911F910F91089594
:103D700084EF9FEFF8CF3CC63EC6CF93DF933ED68D
:103D8000EC01892B11F40ADE36DECE01DF91CF91F2
:103D90000895CF93DF9332D6EC01892B09F4FEDD31
:103DA000CE01DF91CF91089580913202909133023C
:103DB0000895CF93DF9380914A04D0E0C0E0882338
:103DC000D1F030D6EC01892BB1F4E8DD14DE80911E
:103DD000320290913302DED1C4D2EC01892B59F426
:103DE0008FE494E0D5DD83E594E0D2DD8BE494E0CC
:103DF000CFDD10924A04CE01DF91CF910895EF926A
:103E0000FF920F931F93CF93DF93EC017A018B0105
:103E10000F5F1F4F0E9DA0010F9D500D1E9D500D59
:103E2000112470E060E00E94C82E90E080E0F0E095
:103E3000E0E02FEFE816F90639F4DF91CF911F91FA
:103E40000F91FF90EF9008951A821982288330977E
:103E500011F0D283C1830196FE01C00FD11FEACFBA
:103E6000AF92BF92CF92DF92EF92FF920F931F9388
:103E7000CF93DF9384E795E07C012CEFE2228CEC7A
:103E8000C82E82E0D82E92EDA92E92E0B92ECBED6D
:103E9000D5E08E01D6014D915D916D01F5016191E5
:103EA00071915F01D8011196FC92EE9215965C9388
:103EB0004E93149713965C934E93129717967C9398
:103EC0006E9316979B012F5F3F4F249FC001259F44
:103ED000900D349F900D112419969C938E931897F2
:103EE000E114F10411F0C7018ADFF80180859185A2
:103EF000E80EF91E065F1F4FF2EDCF16F2E0DF0667
:103F000049F6E9E5F4E088E191E0DF019C011D92CA
:103F100021503040E1F7109258041092570489EF75
:103F200095E01F8E1E8E1BA21AA219A218A21DA216
:103F30001CA21FA21EA22A968C179D0791F7109211
:103F4000D8051092D7051092DA051092D90590E0A5
:103F500080E0DF91CF911F910F91FF90EF90DF9064
:103F6000CF90BF90AF900895009799F1F894813168
:103F7000910550F48091DD059091DE05892B39F093
:103F800020E090E080E018C08132910550F48091EB
:103F9000E7059091E805892B31F021E081E090E080
:103FA0000BC0C197A8F48091F1059091F205892B7F
:103FB00079F022E082E090E0EAE0E89FD001E99F1A
:103FC000B00D1124A552BA4F8D919C91009721F408
:103FD000789490E080E00895E29FF0011124E5528A
:103FE000FA4FDC0111964D915C91518340834281DF
:103FF00053814150510953834283FC012193CF01E6
:1040000078940895009749F1DC018E91863041F44F
:10401000E091D905F091DA053097F9F0CD011994C6
:104020008630D8F4282F30E0F8948FEF8C938AE014
:10403000829FF001839FF00D1124E552FA4F808199
:10404000918112969C938E931197B183A083828164
:10405000938101969383828378940895CF92DF921F
:10406000EF92FF920F931F93CF93DF939C018CE508
:1040700094E08C7F4115510509F489C02115310563
:1040800009F485C06115710509F481C08A01AB018D
:10409000B9016D5F7F4F6C7F9B012F5F3F4F249F66
:1040A0007001259FF00C349FF00C1124F894EBED77
:1040B000F5E023E030E0E901A6A1B7A1C68CD78CDA
:1040C000CD2809F058C0109709F03EC0C0905704A1
:1040D000D090580425E131E02C193D092E153F05FB
:1040E00030F47894CFEFDFEF86EF9FEF21C02AE026
:1040F0002C9FF0012D9FF00D1124E552FA4F918372
:104100008083558344835383428377836683F18618
:10411000E086009709F073DEEC0CFD1CF092580469
:10412000E09257047894CF3FDC07F1F290E080E012
:10413000F801D183C083DF91CF911F910F91FF9040
:10414000EF90DF90CF900895AE15BF05A0F02AE064
:104150002C9FF0012D9FF00D1124E552FA4F918311
:104160008083558344835383428377836683009798
:10417000C9F245DED7CF8A0F9B1F2F5F3F4F3A967C
:104180002630310509F097CFCFEFDFEFCBCF8FEFA0
:104190009FEFD1CF9C010397039708F04EC0F8948E
:1041A00085E09AE0482F50E0241735079CF191E014
:1041B0008AE0829FF001839FF00D1124E552FA4FAF
:1041C0001182108215821482138212821782168243
:1041D0009923E1F08091570490915804EBEDF5E0BC
:1041E00022A933A9232B49F422AD33AD2115310582
:1041F00021F0821B930B13AE12AE3A9725E0ED3BF4
:10420000F20771F79093580480935704789490E0E4
:1042100080E00895949FF001959FF00D1124E552E0
:10422000FA4F40815181452B31F440855185452B12
:1042300011F48150B7CF90E0BBCF8FEF9FEF08957F
:104240004115510549F1009739F16115710521F1C9
:10425000F8942091D7053091D805232BB9F42091FB
:10426000D9053091DA05232B89F49093D8058093F2
:10427000D7057093DA056093D905789426E030E08D
:1042800090E080E0FA0131832083089578942FEF45
:104290003FEF86EF9FEFF6CF8FEF9FEF08950697E2
:1042A00069F4F8941092D8051092D7051092DA05A7
:1042B0001092D905789490E080E008958FEF9FEFF9
:1042C00008956115710519F4F0E0E0E011C0863041
:1042D000910581F4E091D705F091D8053097A1F3CD
:1042E000CB0101961995009779F3FC0186E0819343
:1042F000CF0108959C01235031092330310520F767
:104300002AE0289FD001299FB00D1124A552BA4F51
:104310002D913C911197232BB9F216962D913C913A
:1043200017972617370780F2F89412962D913C9133
:1043300013972115310529F0ED91FC9111973097D4
:1043400011F47894C1CF4181528111965C934E93C0
:104350002150310913963C932E93129781937894B0
:10436000C7CFE1E7F5E086E6DF011D928A95E9F720
:10437000E9E5F4E088E191E0DF019C011D92215024
:104380003040E1F71092580410925704EBEDF5E03D
:104390008CE3DF011D928A95E9F7E7EDF5E084E013
:1043A000DF011D928A95E9F790E080E00895CF93B0
:1043B000DF93C0913402D0913502CF3FDC0759F42E
:1043C000DCD3909335028093340297FF09C0D093D9
:1043D0003502C093340284EF9FEFDF91CF910895AF
:1043E00090E080E0FACF8230910528F480931706A0
:1043F00090E080E008958FEF9FEF08954F925F92D5
:104400006F927F92AF92BF92CF92DF92EF92FF9224
:104410000F931F93CF93DF931F921F92CDB7DEB7F9
:104420001A821982009709F478C06115710509F4A0
:1044300074C0209134023091350207EF1FEF2F3FF7
:104440003F4F09F444C06B015C01412C512C3201F7
:10445000F12CE12C10E000E09E012F5F3F4FA60100
:104460004E195F09B5016E0D7F1D80913402909148
:104470003502E1D3892B09F04AC089819A810097DE
:1044800041F4E114F10429F420911706222309F4E0
:1044900041C0E80EF91EEC14FD04C8F480E848168B
:1044A00084E858068EE16806710418F560E070E053
:1044B000CB013CD62AE0420E511C611C711C0A3F04
:1044C0004FEF140721F0043F8FEF1807A1F4C80144
:1044D0000F900F90DF91CF911F910F91FF90EF9070
:1044E000DF90CF90BF90AF907F906F905F904F9094
:1044F000089501EF1FEF81E090E0013F2FEF1207D9
:1045000011F090E080E0892B09F4A6CFE0CF04EF12
:104510001FEFDDCF0AEF1FEFDACF0FEF1FEFD7CF7F
:104520004F925F926F927F92AF92BF92CF92DF9243
:10453000EF92FF920F931F93CF93DF931F921F92DF
:10454000CDB7DEB71A821982009709F478C06115D9
:10455000710509F474C0209134023091350207EFDF
:104560001FEF2F3F3F4F09F444C06B015C01412C0A
:10457000512C3201F12CE12C10E000E09E012F5F64
:104580003F4FA6014E195F09B5016E0D7F1D809149
:1045900034029091350205D3892B09F04AC08981F4
:1045A0009A81009741F4E114F10429F4209117064F
:1045B000222309F441C0E80EF91EEC14FD04C8F4EE
:1045C00080E8481686E9580688E96806710418F5F7
:1045D00060E070E0CB01AAD52AE0420E511C611CBC
:1045E000711C0E3F4FEF140721F0043F8FEF1807A7
:1045F000A1F4C8010F900F90DF91CF911F910F91FF
:10460000FF90EF90DF90CF90BF90AF907F906F9032
:104610005F904F90089502EF1FEF81E090E0023F1E
:104620002FEF120711F090E080E0892B09F4A6CF5C
:10463000E0CF04EF1FEFDDCF0EEF1FEFDACF0FEF6C
:104640001FEFD7CF80913402909135028F3F9807AA
:1046500049F08BD2892B49F48FEF9FEF909335026D
:104660008093340290E080E0089584EF9FEF0895F6
:10467000FC01680F791F90E080E0E617F70709F466
:1046800008952191820F911DF8CF209118062111D4
:1046900013C08DDE009791F410921E0610921D0635
:1046A00010921C0610921B0610921A061092190600
:1046B00021E020931806089584EF9FEF0895AF92AC
:1046C000BF92CF92DF92EF92FF920F931F93CF93FF
:1046D000DF93009709F460C04630510508F45CC0D0
:1046E00020911806C7EFDFEF222309F449C08C019F
:1046F000060F171FF801C080D180C114D10409F43E
:104700004EC096012A5F3F4F4217530708F447C037
:104710007C0180911D0690911E0693838283B601D1
:104720006C5F7F4F5801A60EB71EC801A1DFF501CF
:104730009183808364E070E0C80160DEEC01892B26
:10474000F9F481E090E04FDEB601C801049656DE30
:10475000EC01892B91F462E070E0C5014FDEEC01C1
:10476000892B59F4C7014EDC80911D0690911E06DD
:10477000019690931E0680931D0690E080E033DE44
:10478000CE01DF91CF911F910F91FF90EF90DF90BD
:10479000CF90BF90AF900895CFEFDFEFF1CFC9EF8B
:1047A000DFEFEECF6F927F928F929F92AF92BF9288
:1047B000CF92DF92EF92FF920F931F93CF93DF93ED
:1047C00000D01F92CDB7DEB7009709F47AC041152B
:1047D000510509F476C02091180607EF1FEF222338
:1047E00009F44DC03A017B015C0164E070E0CE0148
:1047F000019696DE8C01892B09F041C009811A814E
:104800000115110509F45AC0480186E0880E911C73
:10481000B701680D791D809136029091370251DD04
:104820006C01009709F450C0A70170E060E00E949D
:10483000C82E89819A81AB81BC81EC0CFD1CF701EB
:1048400081939193A193B1937F0181E090E0CBDDBF
:10485000B801C70165DE892B31F562E070E0C70160
:10486000800F911F5DDE8C01892BE9F490E080E0E0
:10487000BADDF501D182C082F30191828082C80144
:104880000F900F900F900F90DF91CF911F910F918C
:10489000FF90EF90DF90CF90BF90AF909F908F9060
:1048A0007F906F90089590E080E09DDDF50111828A
:1048B0001082F30111821082C601A4DB09EF1FEF01
:1048C000DECF0FEF1FEFDBCF06EF1FEFD8CF009744
:1048D000A1F04115510589F02115310571F0F9015B
:1048E00036966E177F0748F0DC012D933C93DA0172
:1048F000ED93FC9390E080E008958FEF9FEF089593
:10490000AF92BF92CF92DF92EF92FF920F931F93DD
:10491000CF93DF93009709F45FC04115510509F467
:104920005BC06530710508F457C020911806C7EFC9
:10493000DFEF222391F1DC01CD90DC9011971296EC
:10494000ED91FC9196012A5F3F4FC9EFDFEF2617EB
:10495000370719F5C0911906D0911A06209749F525
:1049600021E030E030931A06209319067A018C0179
:10497000F0931C06E0931B065601B4E0AB0EB11C8D
:10498000B50176DE0A0D1B1DF801208131818217E9
:10499000930729F5D701CD92DC92CE01DF91CF911B
:1049A0001F910F91FF90EF90DF90CF90BF90AF904D
:1049B000089520911B0630911C062F5F3F4FCCEFCE
:1049C000DFEFE217F30790F2CBEFDFEF2E173F0791
:1049D00068F2D0E0C0E0CACFCFEFDFEFDECFC3EFA9
:1049E000DFEFDBCF84E090E0089582E090E008956F
:1049F0008CEF9FEF089580E290E0089510921E06DC
:104A000010921D0610921C0610921B0610921A0698
:104A10001092190690E080E00895909337028093F9
:104A20003602089580911806882391F00BDE0097D6
:104A300089F410921E0610921D0610921C06109208
:104A40001B0610921A061092190610921806089565
:104A500090E080E00895009749F06115710531F00C
:104A6000FC0111821082FB01118210820895F3CFA4
:104A700040E855E260E070E090E080E000C0813006
:104A8000910571F01CF4892B39F00895823091055D
:104A900059F0039769F0089526E08CE296E06EC61F
:104AA00026E089EC96E0FBCF26E086E697E0F7CF9C
:104AB00026E083E098E0F3CF1F920F920FB60F929B
:104AC00011240BB60F922F933F934F935F936F93E5
:104AD0007F938F939F93AF93BF93EF93FF9386E062
:104AE0009FEF9093250180932401B9D0FF91EF911E
:104AF000BF91AF919F918F917F916F915F914F91F6
:104B00003F912F910F900BBE0F900FBE0F901F90F3
:104B1000189586E09FEF9093250180932401A3E7E9
:104B2000B0E08C918E7F8C93E0E2F1E080818C7F0D
:104B30008083E1E2F1E08081877E808380818360F1
:104B4000808380818B7F80838C9181608C9308959A
:104B5000E3E7F0E0808190819E7F908381700895EB
:104B600081E0089510921F06089568EE73E080E0DA
:104B700090E0DCD290E080E0089526E040E050E153
:104B80006EE070E08CE296E0F9D58CE296E02CD5F0
:104B9000892B21F08CE296E041D5F7CF90E080E0C0
:104BA0000895CF92DF92EF92FF920F931F93CF93CE
:104BB000DF936B017A01E901198218828CE296E099
:104BC00013D5892B69F18601CC24C39482E0D82EB9
:104BD00080911F06811110C08CE296E01FD50297CC
:104BE000B9F7C0921F06F801D1928F01888199818F
:104BF000019699838883ECCF888199818E159F05D2
:104C000078F48CE296E00AD58F3F9807A9F3F80173
:104C100081938F0188819981019699838883ECCF54
:104C200090E080E0DF91CF911F910F91FF90EF9086
:104C3000DF90CF9008950F931F93CF93DF93EA01F6
:104C400089018CE296E00E944E2EF801D183C08348
:104C500090E080E0DF91CF911F910F9108958091B6
:104C6000200691E0980F90932006882349F021E0D8
:104C700030E0309322062093210680932006089589
:104C800078940E945105F894809120068150F5CFC8
:104C90000F931F93CF93DF931092BD081092BC081F
:104CA0007BD2E6DEC0914C02D0914D02198218826F
:104CB00060E177E280E090E00E94460570E060E00D
:104CC00090E080E00E94C803009709F042C00E9473
:104CD0007206F8947894BE016C557F4F8A819B814F
:104CE0000E94CB03892B71F46FEF7FEFCB010E9401
:104CF0005A040E944005882329F081E0FE01E65510
:104D0000FF4F8083F89405DF0E944305882311F04C
:104D100080E00BC00E9440058111FACF81E0FE01C6
:104D2000E655FF4F90819111F3CF8093BC087894A2
:104D30000E94B60D8C017894C655DF4F8091BC0857
:104D400081110CC00E9444070E942605F89490E04F
:104D500080E0DF91CF911F910F9108950E9424056B
:104D60000E9443058823D9F081E08093BD0890918B
:104D7000BD0881E0911180E08093BC088091BD085E
:104D80008111E6DE0130110529F40E94B60D892B50
:104D900009F4E8DE0E94B60D8C01E2DECFCF0E945E
:104DA00040058111E1CF81E098819111DECF80E053
:104DB000DCCF71D008F481E0089504D06894B1117B
:104DC000B1C0089594D088F09F5790F0B92F9927DB
:104DD000B751A0F0D1F0660F771F881F991F1AF006
:104DE000BA95C9F712C0B13081F09BD0B1E00895F7
:104DF00098C0672F782F8827B85F39F0B93FCCF378
:104E0000869577956795B395D9F73EF490958095FB
:104E1000709561957F4F8F4F9F4F0895E89409C01B
:104E200097FB3EF490958095709561957F4F8F4FDD
:104E30009F4F9923A9F0F92F96E9BB279395F695F3
:104E4000879577956795B795F111F8CFFAF4BB0F71
:104E500011F460FF1BC06F5F7F4F8F4F9F4F16C0D5
:104E6000882311F096E911C0772321F09EE8872F5F
:104E7000762F05C0662371F096E8862F70E060E01B
:104E80002AF09A95660F771F881FDAF7880F969594
:104E9000879597F90895990F0008550FAA0BE0E838
:104EA000FEEF16161706E807F907C0F012161306EC
:104EB000E407F50798F0621B730B840B950B39F42C
:104EC0000A2661F0232B242B252B21F408950A2692
:104ED00009F4A140A6958FEF811D811D089557FD0E
:104EE0009058440F551F59F05F3F71F04795880F58
:104EF00097FB991F61F09F3F79F0879508951216EF
:104F000013061406551FF2CF4695F1DF08C016169A
:104F100017061806991FF1CF86957105610508944B
:104F20000895E894BB2766277727CB0197F9089562
:104F3000B2DF08F48FEF08950BD078C069D028F065
:104F40006ED018F0952309F05AC05FC01124EACF43
:104F5000C6DFA0F3959FD1F3950F50E0551F629FD8
:104F6000F001729FBB27F00DB11D639FAA27F00DC2
:104F7000B11DAA1F649F6627B00DA11D661F829FE9
:104F80002227B00DA11D621F739FB00DA11D621FCE
:104F9000839FA00D611D221F749F3327A00D611DEB
:104FA000231F849F600D211D822F762F6A2F1124CD
:104FB0009F5750408AF0E1F088234AF0EE0FFF1F20
:104FC000BB1F661F771F881F91505040A9F79E3F57
:104FD000510570F014C0A6CF5F3FECF3983EDCF3B0
:104FE000869577956795B795F795E7959F5FC1F794
:104FF000FE2B880F911D9695879597F9089597F93F
:105000009F6780E870E060E008959FEF80EC08956E
:1050100000240A9416161706180609060895002497
:105020000A9412161306140605060895092E039411
:10503000000C11F4882352F0BB0F40F4BF2B11F485
:1050400060FF04C06F5F7F4F8F4F9F4F08951F9287
:105050000F920FB60F9211242F933F938F939F932C
:10506000AF93BF938091240690912506A0912606C8
:10507000B09127063091230623E0230F2D3758F5F2
:105080000196A11DB11D20932306809324069093C1
:105090002506A0932606B0932706809128069091B6
:1050A0002906A0912A06B0912B060196A11DB11DDB
:1050B0008093280690932906A0932A06B0932B0686
:1050C000BF91AF919F918F913F912F910F900FBE04
:1050D0000F901F90189526E8230F0296A11DB11D71
:1050E000D2CF3FB7F8948091280690912906A091DD
:1050F0002A06B0912B0626B5A89B05C02F3F19F0B4
:105100000196A11DB11D3FBFBA2FA92F982F882747
:10511000BC01CD01620F711D811D911D42E0660F22
:10512000771F881F991F4A95D1F708958F929F92F4
:10513000AF92BF92CF92DF92EF92FF926B017C0110
:10514000D0DF4B015C01C114D104E104F104D9F0BA
:10515000D2D5C7DF681979098A099B09683E73406F
:105160008105910580F321E0C21AD108E108F10818
:1051700088EE880E83E0981EA11CB11CC114D104D6
:10518000E104F10431F7FF90EF90DF90CF90BF90F2
:10519000AF909F908F900895789484B5826084BD7D
:1051A00084B5816084BD85B5826085BD85B581602B
:1051B00085BDEEE6F0E0808181608083E1E8F0E08B
:1051C0001082808182608083808181608083E0E8BA
:1051D000F0E0808181608083E1EBF0E08081846099
:1051E0008083E0EBF0E0808181608083E1E9F0E0A2
:1051F000808182608083808181608083E0E9F0E04B
:10520000808181608083E1EAF0E080818260808338
:10521000808181608083E0EAF0E08081816080832A
:10522000E1E2F1E08081826080838081816080831F
:10523000E0E2F1E0808181608083EAE7F0E0808154
:1052400084608083808182608083808181608083AC
:105250008081806880831092C1000895863308F0B1
:10526000865320917B00982F9870277F922B9093E4
:105270007B002091380290E4299F900111248770CF
:10528000822B80937C0080917A00806480937A00E6
:1052900080917A0086FDFCCF809178009091790012
:1052A00008951F93CF93DF93182FEB0161E033D163
:1052B000209731F460E0812FDF91CF911F9167C17A
:1052C000CF3FD10511F461E0F6CFE12FF0E0EC51D2
:1052D000FF4FE491E150E23108F0B2C0F0E08827DE
:1052E000EC58F64D8F4F2AC586298E2993299D2982
:1052F000A729202AB129B929C129CB29D529DF29F4
:10530000EE29F829202A022A0C2A162A84B5806858
:1053100084BDC7BDDF91CF911F91089584B5806290
:1053200084BDC8BDF7CF80918000806880938000E5
:10533000D0938900C0938800EDCF80918000806277
:1053400080938000D0938B00C0938A00E3CF80913C
:105350008000886080938000D0938D00C0938C0083
:10536000D9CF8091B00080688093B000C093B30023
:10537000D1CF8091B00080628093B000C093B40020
:10538000C9CF80919000806880939000D09399005D
:10539000C0939800BFCF809190008062809390006E
:1053A000D0939B00C0939A00B5CF80919000886005
:1053B00080939000D0939D00C0939C00ABCF8091D0
:1053C000A00080688093A0008091A0008F7B8093D4
:1053D000A000D093A900C093A8009CCF8091A0000A
:1053E00080628093A000D093AB00C093AA0092CFBC
:1053F0008091A00088608093A000D093AD00C093FE
:10540000AC0088CF80912001806880932001D093E8
:105410002901C09328017ECF809120018062809372
:105420002001D0932B01C0932A0174CF80912001D9
:10543000886080932001D0932D01C0932C016ACF06
:10544000C038D1050CF03FCF35CF8150823108F004
:1054500059C0E82FF0E08827E05DF54D8F4F6EC40E
:10546000502A542A422A482A4C2A822A572A5D2A3C
:10547000612A672A6B2A6F2A752A792A822A7D2A4D
:10548000832A872A809180008F77809380000895F7
:10549000809180008F7DF9CF80918000877FF5CF4C
:1054A00084B58F7784BD089584B58F7DFBCF8091BF
:1054B000B0008F778093B00008958091B0008F7D09
:1054C000F9CF809190008F7780939000089580911C
:1054D00090008F7DF9CF80919000877FF5CF8091EC
:1054E000A0008F778093A00008958091A0008F7D09
:1054F000F9CF8091A000877FF5CF809120018F7731
:10550000809320010895809120018F7DF9CF8091B3
:105510002001877FF5CFCF93DF9390E0FC01E65D1C
:10552000FE4F249180599E4FFC0184918823C9F03D
:1055300090E0880F991FFC01E053FE4FA591B491B4
:10554000FC01EA54FE4FC591D49161110DC09FB783
:10555000F8948C91209582238C938881282328832A
:105560009FBFDF91CF910895623051F49FB7F894B7
:105570003C91822F809583238C93E8812E2BEFCF53
:105580008FB7F894EC912E2B2C938FBFEACF1F93FB
:10559000CF93DF93282F30E0F901EC51FF4F849136
:1055A000F901E65DFE4FD491F901E059FE4FC49137
:1055B000CC23A1F0162F811148DFEC2FF0E0EE0F85
:1055C000FF1FEA54FE4FA591B4918FB7F894EC9168
:1055D000111108C0D095DE23DC938FBFDF91CF91EE
:1055E0001F910895DE2BF8CFFC01918D228D892F1C
:1055F00090E0805C9F4F821B91098F7399270895DB
:10560000FC01918D828D981731F0828DE80FF11D8C
:10561000858D90E008958FEF9FEF0895FC01918DA7
:10562000828D981761F0A28DAE0FBF2FB11D5D96D0
:105630008C91928D9F5F9F73928F90E008958FEF72
:105640009FEF0895FC01538D448D252F30E0842F6A
:1056500090E0821B930B541710F0CF96089501979A
:105660000895FC01A48DA80FB92FB11DA35ABF4FF7
:105670002C91848D90E001968F739927848FA68951
:10568000B7892C93A089B1898C91837080648C93A5
:10569000938D848D981306C00288F389E02D808154
:1056A0008F7D80830895CF93DF93EC01888D8823CD
:1056B000B1F0AA89BB89E889F9898C9185FD03C07D
:1056C000808186FD0CC00FB607FCF7CF8C9185FF5B
:1056D000F2CF808185FFEDCFCE01C3DFEACFDF912E
:1056E000CF910895EF92FF920F931F93CF93DF9383
:1056F000EC0181E0888F9B8D8C8D98131AC0E8890E
:10570000F989808185FF15C09FB7F894EE89FF89DC
:105710006083E889F98980818370806480839FBF7A
:1057200081E090E0DF91CF911F910F91FF90EF907A
:105730000895F62E0B8D10E00F5F1F4F0F7311278A
:10574000E02E8C8D8E110BC00FB607FCFACFE889C6
:10575000F989808185FFF5CFCE0183DFF2CFEB8D14
:10576000EC0FFD2FF11DE35AFF4FF0829FB7F89425
:105770000B8FEA89FB8980818062D0CFCF92DF9244
:10578000EF92FF921F93CF93DF93EC016A017B01AD
:10579000122FE889F98982E08083C11481EED8064E
:1057A000E104F10499F060E079E08DE390E0A70175
:1057B0009601A2D2215031094109510956954795C8
:1057C00037952795211580E1380790F0E889F98908
:1057D000108260E874E88EE190E0A70196018CD217
:1057E000215031094109510956954795379527951B
:1057F000EC85FD853083EE85FF852083188EEC894E
:10580000FD891083EA89FB89808180618083EA8930
:10581000FB89808188608083EA89FB898081806838
:105820008083EA89FB8980818F7D8083DF91CF919E
:105830001F91FF90EF90DF90CF9008951F920F92ED
:105840000FB60F9211240BB60F922F938F939F9345
:10585000EF93FF93E0913C06F0913D068081E0914B
:105860004206F091430682FD1DC09081809145065D
:105870008F5F8F7320914606821741F0E0914506B5
:10588000F0E0E45DF94F958F80934506FF91EF912D
:105890009F918F912F910F900BBE0F900FBE0F9085
:1058A0001F9018958081F2CF1F920F920FB60F9222
:1058B00011240BB60F922F933F934F935F936F93E7
:1058C0007F938F939F93AF93BF93EF93FF938CE25C
:1058D00096E0C7DEFF91EF91BF91AF919F918F91BD
:1058E0007F916F915F914F913F912F910F900BBEE0
:1058F0000F900FBE0F901F901895ECE2F6E0138208
:10590000128288EE93E0A0E0B0E084839583A683C2
:10591000B7838CED92E09183808385EC90E095874E
:10592000848784EC90E09787868780EC90E0918B69
:10593000808B81EC90E0938B828B82EC90E0958B56
:10594000848B86EC90E0978B868B118E128E138E53
:10595000148E08951F920F920FB60F9211240BB65A
:105960000F922F938F939F93EF93FF93E091D9061C
:10597000F091DA068081E091DF06F091E00682FD89
:105980001DC090818091E2068F5F8F732091E306A6
:10599000821741F0E091E206F0E0E753F94F958F6E
:1059A0008093E206FF91EF919F918F912F910F903D
:1059B0000BBE0F900FBE0F901F9018958081F2CFF5
:1059C0001F920F920FB60F9211240BB60F922F93C6
:1059D0003F934F935F936F937F938F939F93AF9377
:1059E000BF93EF93FF9389EC96E03BDEFF91EF913D
:1059F000BF91AF919F918F917F916F915F914F91E7
:105A00003F912F910F900BBE0F900FBE0F901F90E4
:105A10001895E9ECF6E01382128288EE93E0A0E09C
:105A2000B0E084839583A683B7838CED92E0918365
:105A300080838DEC90E0958784878CEC90E097874D
:105A4000868788EC90E0918B808B89EC90E0938B3B
:105A5000828B8AEC90E0958B848B8EEC90E0978B18
:105A6000868B118E128E138E148E08951F920F92B4
:105A70000FB60F9211240BB60F922F938F939F9313
:105A8000EF93FF93E0917607F09177078081E091A3
:105A90007C07F0917D0782FD1DC0908180917F077A
:105AA0008F5F8F7320918007821741F0E0917F070D
:105AB000F0E0EA59F84F958F80937F07FF91EF91BF
:105AC0009F918F912F910F900BBE0F900FBE0F9053
:105AD0001F9018958081F2CF1F920F920FB60F92F0
